{
  "_format": "hh-sol-artifact-1",
  "contractName": "MyEpicNFT",
  "sourceName": "contracts/MyEpicNFT.sol",
  "abi": [
    {
      "inputs": [],
      "stateMutability": "nonpayable",
      "type": "constructor"
    },
    {
      "anonymous": false,
      "inputs": [
        {
          "indexed": true,
          "internalType": "address",
          "name": "owner",
          "type": "address"
        },
        {
          "indexed": true,
          "internalType": "address",
          "name": "approved",
          "type": "address"
        },
        {
          "indexed": true,
          "internalType": "uint256",
          "name": "tokenId",
          "type": "uint256"
        }
      ],
      "name": "Approval",
      "type": "event"
    },
    {
      "anonymous": false,
      "inputs": [
        {
          "indexed": true,
          "internalType": "address",
          "name": "owner",
          "type": "address"
        },
        {
          "indexed": true,
          "internalType": "address",
          "name": "operator",
          "type": "address"
        },
        {
          "indexed": false,
          "internalType": "bool",
          "name": "approved",
          "type": "bool"
        }
      ],
      "name": "ApprovalForAll",
      "type": "event"
    },
    {
      "anonymous": false,
      "inputs": [
        {
          "indexed": false,
          "internalType": "address",
          "name": "sender",
          "type": "address"
        },
        {
          "indexed": false,
          "internalType": "uint256",
          "name": "tokenId",
          "type": "uint256"
        }
      ],
      "name": "NewEpicNFTMinted",
      "type": "event"
    },
    {
      "anonymous": false,
      "inputs": [
        {
          "indexed": true,
          "internalType": "address",
          "name": "from",
          "type": "address"
        },
        {
          "indexed": true,
          "internalType": "address",
          "name": "to",
          "type": "address"
        },
        {
          "indexed": true,
          "internalType": "uint256",
          "name": "tokenId",
          "type": "uint256"
        }
      ],
      "name": "Transfer",
      "type": "event"
    },
    {
      "inputs": [
        {
          "internalType": "address",
          "name": "to",
          "type": "address"
        },
        {
          "internalType": "uint256",
          "name": "tokenId",
          "type": "uint256"
        }
      ],
      "name": "approve",
      "outputs": [],
      "stateMutability": "nonpayable",
      "type": "function"
    },
    {
      "inputs": [
        {
          "internalType": "address",
          "name": "owner",
          "type": "address"
        }
      ],
      "name": "balanceOf",
      "outputs": [
        {
          "internalType": "uint256",
          "name": "",
          "type": "uint256"
        }
      ],
      "stateMutability": "view",
      "type": "function"
    },
    {
      "inputs": [
        {
          "internalType": "uint256",
          "name": "tokenId",
          "type": "uint256"
        }
      ],
      "name": "getApproved",
      "outputs": [
        {
          "internalType": "address",
          "name": "",
          "type": "address"
        }
      ],
      "stateMutability": "view",
      "type": "function"
    },
    {
      "inputs": [],
      "name": "getTotalNFTsMintedSoFar",
      "outputs": [
        {
          "internalType": "uint256",
          "name": "",
          "type": "uint256"
        }
      ],
      "stateMutability": "view",
      "type": "function"
    },
    {
      "inputs": [
        {
          "internalType": "address",
          "name": "owner",
          "type": "address"
        },
        {
          "internalType": "address",
          "name": "operator",
          "type": "address"
        }
      ],
      "name": "isApprovedForAll",
      "outputs": [
        {
          "internalType": "bool",
          "name": "",
          "type": "bool"
        }
      ],
      "stateMutability": "view",
      "type": "function"
    },
    {
      "inputs": [],
      "name": "make3WordNFT",
      "outputs": [],
      "stateMutability": "nonpayable",
      "type": "function"
    },
    {
      "inputs": [],
      "name": "name",
      "outputs": [
        {
          "internalType": "string",
          "name": "",
          "type": "string"
        }
      ],
      "stateMutability": "view",
      "type": "function"
    },
    {
      "inputs": [
        {
          "internalType": "uint256",
          "name": "tokenId",
          "type": "uint256"
        }
      ],
      "name": "ownerOf",
      "outputs": [
        {
          "internalType": "address",
          "name": "",
          "type": "address"
        }
      ],
      "stateMutability": "view",
      "type": "function"
    },
    {
      "inputs": [
        {
          "internalType": "uint256",
          "name": "tokenId",
          "type": "uint256"
        }
      ],
      "name": "pickRandomFirstWord",
      "outputs": [
        {
          "internalType": "string",
          "name": "",
          "type": "string"
        }
      ],
      "stateMutability": "view",
      "type": "function"
    },
    {
      "inputs": [
        {
          "internalType": "uint256",
          "name": "tokenId",
          "type": "uint256"
        }
      ],
      "name": "pickRandomSecondWord",
      "outputs": [
        {
          "internalType": "string",
          "name": "",
          "type": "string"
        }
      ],
      "stateMutability": "view",
      "type": "function"
    },
    {
      "inputs": [
        {
          "internalType": "uint256",
          "name": "tokenId",
          "type": "uint256"
        }
      ],
      "name": "pickRandomThirdWord",
      "outputs": [
        {
          "internalType": "string",
          "name": "",
          "type": "string"
        }
      ],
      "stateMutability": "view",
      "type": "function"
    },
    {
      "inputs": [
        {
          "internalType": "address",
          "name": "from",
          "type": "address"
        },
        {
          "internalType": "address",
          "name": "to",
          "type": "address"
        },
        {
          "internalType": "uint256",
          "name": "tokenId",
          "type": "uint256"
        }
      ],
      "name": "safeTransferFrom",
      "outputs": [],
      "stateMutability": "nonpayable",
      "type": "function"
    },
    {
      "inputs": [
        {
          "internalType": "address",
          "name": "from",
          "type": "address"
        },
        {
          "internalType": "address",
          "name": "to",
          "type": "address"
        },
        {
          "internalType": "uint256",
          "name": "tokenId",
          "type": "uint256"
        },
        {
          "internalType": "bytes",
          "name": "_data",
          "type": "bytes"
        }
      ],
      "name": "safeTransferFrom",
      "outputs": [],
      "stateMutability": "nonpayable",
      "type": "function"
    },
    {
      "inputs": [
        {
          "internalType": "address",
          "name": "operator",
          "type": "address"
        },
        {
          "internalType": "bool",
          "name": "approved",
          "type": "bool"
        }
      ],
      "name": "setApprovalForAll",
      "outputs": [],
      "stateMutability": "nonpayable",
      "type": "function"
    },
    {
      "inputs": [
        {
          "internalType": "bytes4",
          "name": "interfaceId",
          "type": "bytes4"
        }
      ],
      "name": "supportsInterface",
      "outputs": [
        {
          "internalType": "bool",
          "name": "",
          "type": "bool"
        }
      ],
      "stateMutability": "view",
      "type": "function"
    },
    {
      "inputs": [],
      "name": "symbol",
      "outputs": [
        {
          "internalType": "string",
          "name": "",
          "type": "string"
        }
      ],
      "stateMutability": "view",
      "type": "function"
    },
    {
      "inputs": [
        {
          "internalType": "uint256",
          "name": "tokenId",
          "type": "uint256"
        }
      ],
      "name": "tokenURI",
      "outputs": [
        {
          "internalType": "string",
          "name": "",
          "type": "string"
        }
      ],
      "stateMutability": "view",
      "type": "function"
    },
    {
      "inputs": [
        {
          "internalType": "address",
          "name": "from",
          "type": "address"
        },
        {
          "internalType": "address",
          "name": "to",
          "type": "address"
        },
        {
          "internalType": "uint256",
          "name": "tokenId",
          "type": "uint256"
        }
      ],
      "name": "transferFrom",
      "outputs": [],
      "stateMutability": "nonpayable",
      "type": "function"
    }
  ],
  "bytecode": "0x6080604052606360085560405180610160016040528061012f815260200162005bba61012f9139600990805190602001906200003d92919062001eb9565b50604051806104e001604052806040518060400160405280600781526020017f416e6e6f7965640000000000000000000000000000000000000000000000000081525081526020016040518060400160405280600581526020017f47726f737300000000000000000000000000000000000000000000000000000081525081526020016040518060400160405280600981526020017f44656c696768746564000000000000000000000000000000000000000000000081525081526020016040518060400160405280600781526020017f4f6d696e6f75730000000000000000000000000000000000000000000000000081525081526020016040518060400160405280600a81526020017f446973686576656c65640000000000000000000000000000000000000000000081525081526020016040518060400160405280600681526020017f46696c746879000000000000000000000000000000000000000000000000000081525081526020016040518060400160405280600881526020017f477261636566756c00000000000000000000000000000000000000000000000081525081526020016040518060400160405280600881526020017f486f6d656c65737300000000000000000000000000000000000000000000000081525081526020016040518060400160405280600681526020017f446f63696c65000000000000000000000000000000000000000000000000000081525081526020016040518060400160405280600781526020017f4164616d616e740000000000000000000000000000000000000000000000000081525081526020016040518060400160405280600681526020017f436f736d6963000000000000000000000000000000000000000000000000000081525081526020016040518060400160405280600881526020017f486f6c697374696300000000000000000000000000000000000000000000000081525081526020016040518060400160405280600481526020017f4d6567610000000000000000000000000000000000000000000000000000000081525081526020016040518060400160405280600b81526020017f4d6963726f73636f70696300000000000000000000000000000000000000000081525081526020016040518060400160405280600981526020017f4c6574686172676963000000000000000000000000000000000000000000000081525081526020016040518060400160405280600481526020017f4c6f73740000000000000000000000000000000000000000000000000000000081525081526020016040518060400160405280600a81526020017f44657465726d696e65640000000000000000000000000000000000000000000081525081526020016040518060400160405280600581526020017f487970657200000000000000000000000000000000000000000000000000000081525081526020016040518060400160405280600581526020017f46617a656400000000000000000000000000000000000000000000000000000081525081526020016040518060400160405280600781526020017f4472756e6b656e0000000000000000000000000000000000000000000000000081525081526020016040518060400160405280600681526020017f44696e677573000000000000000000000000000000000000000000000000000081525081526020016040518060400160405280600381526020017f417065000000000000000000000000000000000000000000000000000000000081525081526020016040518060400160405280600481526020017f486f6c790000000000000000000000000000000000000000000000000000000081525081526020016040518060400160405280600781526020017f44656d6f6e69630000000000000000000000000000000000000000000000000081525081526020016040518060400160405280600681526020017f4e657572616c000000000000000000000000000000000000000000000000000081525081526020016040518060400160405280600581526020017f4a6f6c6c7900000000000000000000000000000000000000000000000000000081525081526020016040518060400160405280600681526020017f4d6f64657374000000000000000000000000000000000000000000000000000081525081526020016040518060400160405280600681526020017f496d70697368000000000000000000000000000000000000000000000000000081525081526020016040518060400160405280600581526020017f536173737900000000000000000000000000000000000000000000000000000081525081526020016040518060400160405280600681526020017f4c6f6e656c79000000000000000000000000000000000000000000000000000081525081526020016040518060400160405280600581526020017f497463687900000000000000000000000000000000000000000000000000000081525081526020016040518060400160405280600581526020017f537570657200000000000000000000000000000000000000000000000000000081525081526020016040518060400160405280600681526020017f537475706964000000000000000000000000000000000000000000000000000081525081526020016040518060400160405280600781526020017f5a65616c6f75730000000000000000000000000000000000000000000000000081525081526020016040518060400160405280600781526020017f55676c696573740000000000000000000000000000000000000000000000000081525081526020016040518060400160405280600981526020017f5669766163696f7573000000000000000000000000000000000000000000000081525081526020016040518060400160405280600a81526020017f566f6c757074756f75730000000000000000000000000000000000000000000081525081526020016040518060400160405280600581526020017f416c6f6f6600000000000000000000000000000000000000000000000000000081525081526020016040518060400160405280600581526020017f446f6f7a79000000000000000000000000000000000000000000000000000000815250815250600a9060276200095792919062001f4a565b506040518061056001604052806040518060400160405280600681526020017f4a756e676c65000000000000000000000000000000000000000000000000000081525081526020016040518060400160405280600881526020017f506176656d656e7400000000000000000000000000000000000000000000000081525081526020016040518060400160405280600881526020017f53616e647769636800000000000000000000000000000000000000000000000081525081526020016040518060400160405280600781526020017f4b6574636875700000000000000000000000000000000000000000000000000081525081526020016040518060400160405280600481526020017f4c696d650000000000000000000000000000000000000000000000000000000081525081526020016040518060400160405280600381526020017f436170000000000000000000000000000000000000000000000000000000000081525081526020016040518060400160405280600381526020017f496d70000000000000000000000000000000000000000000000000000000000081525081526020016040518060400160405280600581526020017f43616d656c00000000000000000000000000000000000000000000000000000081525081526020016040518060400160405280600681526020017f436163747573000000000000000000000000000000000000000000000000000081525081526020016040518060400160405280600581526020017f446561746800000000000000000000000000000000000000000000000000000081525081526020016040518060400160405280600681526020017f5475726b6579000000000000000000000000000000000000000000000000000081525081526020016040518060400160405280600881526020017f436f6d6d616e646f00000000000000000000000000000000000000000000000081525081526020016040518060400160405280600781526020017f5069616e6973740000000000000000000000000000000000000000000000000081525081526020016040518060400160405280600a81526020017f536375626164697665720000000000000000000000000000000000000000000081525081526020016040518060400160405280600681526020017f42616c756761000000000000000000000000000000000000000000000000000081525081526020016040518060400160405280600781526020017f53656c747a65720000000000000000000000000000000000000000000000000081525081526020016040518060400160405280600681526020017f42756c646765000000000000000000000000000000000000000000000000000081525081526020016040518060400160405280600481526020017f536f756c0000000000000000000000000000000000000000000000000000000081525081526020016040518060400160405280600381526020017f417065000000000000000000000000000000000000000000000000000000000081525081526020016040518060400160405280600481526020017f427574740000000000000000000000000000000000000000000000000000000081525081526020016040518060400160405280600581526020017f4b616e796500000000000000000000000000000000000000000000000000000081525081526020016040518060400160405280600481526020017f506570650000000000000000000000000000000000000000000000000000000081525081526020016040518060400160405280600481526020017f456c6f6e0000000000000000000000000000000000000000000000000000000081525081526020016040518060400160405280600681526020017f426f6f676572000000000000000000000000000000000000000000000000000081525081526020016040518060400160405280600781526020017f5068616e746f6d0000000000000000000000000000000000000000000000000081525081526020016040518060400160405280600981526020017f536173717561746368000000000000000000000000000000000000000000000081525081526020016040518060400160405280600981526020017f434a46726f6d475441000000000000000000000000000000000000000000000081525081526020016040518060400160405280600581526020017f4d69616d6900000000000000000000000000000000000000000000000000000081525081526020016040518060400160405280600a81526020017f48616d627572676c65720000000000000000000000000000000000000000000081525081526020016040518060400160405280600781526020017f426972646d616e0000000000000000000000000000000000000000000000000081525081526020016040518060400160405280600a81526020017f436875706163616272610000000000000000000000000000000000000000000081525081526020016040518060400160405280600481526020017f5a6575730000000000000000000000000000000000000000000000000000000081525081526020016040518060400160405280600581526020017f446569747900000000000000000000000000000000000000000000000000000081525081526020016040518060400160405280600881526020017f547269666f72636500000000000000000000000000000000000000000000000081525081526020016040518060400160405280600481526020017f546f67610000000000000000000000000000000000000000000000000000000081525081526020016040518060400160405280600581526020017f536d6f6b6500000000000000000000000000000000000000000000000000000081525081526020016040518060400160405280600681526020017f5468726f6174000000000000000000000000000000000000000000000000000081525081526020016040518060400160405280600381526020017f546f65000000000000000000000000000000000000000000000000000000000081525081526020016040518060400160405280600881526020017f4d6173746f646f6e00000000000000000000000000000000000000000000000081525081526020016040518060400160405280600481526020017f426162790000000000000000000000000000000000000000000000000000000081525081526020016040518060400160405280600481526020017f436173680000000000000000000000000000000000000000000000000000000081525081526020016040518060400160405280600681526020017f43727970746f000000000000000000000000000000000000000000000000000081525081526020016040518060400160405280600681526020017f44696e6775730000000000000000000000000000000000000000000000000000815250815250600b90602b6200135d92919062001fb1565b506040518061052001604052806040518060400160405280600481526020017f536b65770000000000000000000000000000000000000000000000000000000081525081526020016040518060400160405280600981526020017f426c61737068656d79000000000000000000000000000000000000000000000081525081526020016040518060400160405280600581526020017f556e69746500000000000000000000000000000000000000000000000000000081525081526020016040518060400160405280600681526020017f537072696e74000000000000000000000000000000000000000000000000000081525081526020016040518060400160405280600481526020017f4c6966740000000000000000000000000000000000000000000000000000000081525081526020016040518060400160405280600a81526020017f4b617261746563686f700000000000000000000000000000000000000000000081525081526020016040518060400160405280600c81526020017f54656c656b696e6574696373000000000000000000000000000000000000000081525081526020016040518060400160405280600581526020017f4d6167696300000000000000000000000000000000000000000000000000000081525081526020016040518060400160405280600881526020017f437265616d70696500000000000000000000000000000000000000000000000081525081526020016040518060400160405280600b81526020017f4465737472756374696f6e00000000000000000000000000000000000000000081525081526020016040518060400160405280600481526020017f467570610000000000000000000000000000000000000000000000000000000081525081526020016040518060400160405280600381526020017f417065000000000000000000000000000000000000000000000000000000000081525081526020016040518060400160405280600681526020017f566f6c6c6579000000000000000000000000000000000000000000000000000081525081526020016040518060400160405280600881526020017f557070657263757400000000000000000000000000000000000000000000000081525081526020016040518060400160405280600481526020017f547269700000000000000000000000000000000000000000000000000000000081525081526020016040518060400160405280600a81526020017f4b616d6568616d6568610000000000000000000000000000000000000000000081525081526020016040518060400160405280600581526020017f476c69646500000000000000000000000000000000000000000000000000000081525081526020016040518060400160405280600481526020017f526176650000000000000000000000000000000000000000000000000000000081525081526020016040518060400160405280600881526020017f4372656174696f6e00000000000000000000000000000000000000000000000081525081526020016040518060400160405280600b81526020017f4465766173746174696f6e00000000000000000000000000000000000000000081525081526020016040518060400160405280600881526020017f4d616e696665737400000000000000000000000000000000000000000000000081525081526020016040518060400160405280600981526020017f43616c63756c617465000000000000000000000000000000000000000000000081525081526020016040518060400160405280600481526020017f427265770000000000000000000000000000000000000000000000000000000081525081526020016040518060400160405280600781526020017f49676e697465730000000000000000000000000000000000000000000000000081525081526020016040518060400160405280600681526020017f4d696e696e67000000000000000000000000000000000000000000000000000081525081526020016040518060400160405280600481526020017f4a65726b0000000000000000000000000000000000000000000000000000000081525081526020016040518060400160405280600781526020017f5475726d6f696c0000000000000000000000000000000000000000000000000081525081526020016040518060400160405280600581526020017f536d61636b00000000000000000000000000000000000000000000000000000081525081526020016040518060400160405280600481526020017f456174730000000000000000000000000000000000000000000000000000000081525081526020016040518060400160405280600681526020017f426f6f676965000000000000000000000000000000000000000000000000000081525081526020016040518060400160405280600581526020017f4d696d696300000000000000000000000000000000000000000000000000000081525081526020016040518060400160405280600a81526020017f53776565742d74616c6b0000000000000000000000000000000000000000000081525081526020016040518060400160405280600981526020017f436173746967617465000000000000000000000000000000000000000000000081525081526020016040518060400160405280600a81526020017f4465666c6f63636174650000000000000000000000000000000000000000000081525081526020016040518060400160405280600781526020017f4d616e647563650000000000000000000000000000000000000000000000000081525081526020016040518060400160405280600781526020017f466172746c656b0000000000000000000000000000000000000000000000000081525081526020016040518060400160405280600e81526020017f57686970706572736e617070657200000000000000000000000000000000000081525081526020016040518060400160405280600a81526020017f42616d626f6f7a6c65640000000000000000000000000000000000000000000081525081526020016040518060400160405280600581526020017f426c75627300000000000000000000000000000000000000000000000000000081525081526020016040518060400160405280600981526020017f536b65646164646c65000000000000000000000000000000000000000000000081525081526020016040518060400160405280600681526020017f44696e6775730000000000000000000000000000000000000000000000000000815250815250600c90602962001ced92919062002018565b5034801562001cfb57600080fd5b506040518060400160405280600981526020017f33576f7264734e465400000000000000000000000000000000000000000000008152506040518060400160405280600681526020017f33574f5244530000000000000000000000000000000000000000000000000000815250816000908051906020019062001d8092919062001eb9565b50806001908051906020019062001d9992919062001eb9565b50505062001de76040518060400160405280601e81526020017f54686973206973206d79204e465420436f6e74726163742e204e69636521000081525062001ded60201b620012af1760201c565b62002239565b62001e8d8160405160240162001e0491906200214d565b6040516020818303038152906040527f41304fac000000000000000000000000000000000000000000000000000000007bffffffffffffffffffffffffffffffffffffffffffffffffffffffff19166020820180517bffffffffffffffffffffffffffffffffffffffffffffffffffffffff838183161783525050505062001e9060201b60201c565b50565b60008151905060006a636f6e736f6c652e6c6f679050602083016000808483855afa5050505050565b82805462001ec790620021c3565b90600052602060002090601f01602090048101928262001eeb576000855562001f37565b82601f1062001f0657805160ff191683800117855562001f37565b8280016001018555821562001f37579182015b8281111562001f3657825182559160200191906001019062001f19565b5b50905062001f4691906200207f565b5090565b82805482825590600052602060002090810192821562001f9e579160200282015b8281111562001f9d57825182908051906020019062001f8c92919062001eb9565b509160200191906001019062001f6b565b5b50905062001fad91906200209e565b5090565b82805482825590600052602060002090810192821562002005579160200282015b828111156200200457825182908051906020019062001ff392919062001eb9565b509160200191906001019062001fd2565b5b5090506200201491906200209e565b5090565b8280548282559060005260206000209081019282156200206c579160200282015b828111156200206b5782518290805190602001906200205a92919062001eb9565b509160200191906001019062002039565b5b5090506200207b91906200209e565b5090565b5b808211156200209a57600081600090555060010162002080565b5090565b5b80821115620020c25760008181620020b89190620020c6565b506001016200209f565b5090565b508054620020d490620021c3565b6000825580601f10620020e8575062002109565b601f0160209004906000526020600020908101906200210891906200207f565b5b50565b6000620021198262002171565b6200212581856200217c565b9350620021378185602086016200218d565b620021428162002228565b840191505092915050565b600060208201905081810360008301526200216981846200210c565b905092915050565b600081519050919050565b600082825260208201905092915050565b60005b83811015620021ad57808201518184015260208101905062002190565b83811115620021bd576000848401525b50505050565b60006002820490506001821680620021dc57607f821691505b60208210811415620021f357620021f2620021f9565b5b50919050565b7f4e487b7100000000000000000000000000000000000000000000000000000000600052602260045260246000fd5b6000601f19601f8301169050919050565b61397180620022496000396000f3fe608060405234801561001057600080fd5b50600436106101165760003560e01c806370a08231116100a2578063b88d4fde11610071578063b88d4fde14610305578063c575757a14610321578063c87b56dd14610351578063d2c9095114610381578063e985e9c51461038b57610116565b806370a082311461026b57806395d89b411461029b578063a22cb465146102b9578063b187301f146102d557610116565b8063095ea7b3116100e9578063095ea7b3146101b757806323b872dd146101d35780632de38d68146101ef57806342842e0e1461021f5780636352211e1461023b57610116565b806301ffc9a71461011b578063060475901461014b57806306fdde0314610169578063081812fc14610187575b600080fd5b61013560048036038101906101309190612542565b6103bb565b60405161014291906131ca565b60405180910390f35b61015361049d565b6040516101609190613465565b60405180910390f35b6101716104ae565b60405161017e91906131e5565b60405180910390f35b6101a1600480360381019061019c9190612594565b610540565b6040516101ae919061313a565b60405180910390f35b6101d160048036038101906101cc9190612506565b6105c5565b005b6101ed60048036038101906101e89190612400565b6106dd565b005b61020960048036038101906102049190612594565b61073d565b60405161021691906131e5565b60405180910390f35b61023960048036038101906102349190612400565b61085b565b005b61025560048036038101906102509190612594565b61087b565b604051610262919061313a565b60405180910390f35b6102856004803603810190610280919061239b565b61092d565b6040516102929190613465565b60405180910390f35b6102a36109e5565b6040516102b091906131e5565b60405180910390f35b6102d360048036038101906102ce91906124ca565b610a77565b005b6102ef60048036038101906102ea9190612594565b610bf8565b6040516102fc91906131e5565b60405180910390f35b61031f600480360381019061031a919061244f565b610d16565b005b61033b60048036038101906103369190612594565b610d78565b60405161034891906131e5565b60405180910390f35b61036b60048036038101906103669190612594565b610e96565b60405161037891906131e5565b60405180910390f35b610389610fe8565b005b6103a560048036038101906103a091906123c4565b61121b565b6040516103b291906131ca565b60405180910390f35b60007f80ac58cd000000000000000000000000000000000000000000000000000000007bffffffffffffffffffffffffffffffffffffffffffffffffffffffff1916827bffffffffffffffffffffffffffffffffffffffffffffffffffffffff1916148061048657507f5b5e139f000000000000000000000000000000000000000000000000000000007bffffffffffffffffffffffffffffffffffffffffffffffffffffffff1916827bffffffffffffffffffffffffffffffffffffffffffffffffffffffff1916145b80610496575061049582611348565b5b9050919050565b60006104a960076113b2565b905090565b6060600080546104bd90613704565b80601f01602080910402602001604051908101604052809291908181526020018280546104e990613704565b80156105365780601f1061050b57610100808354040283529160200191610536565b820191906000526020600020905b81548152906001019060200180831161051957829003601f168201915b5050505050905090565b600061054b826113c0565b61058a576040517f08c379a0000000000000000000000000000000000000000000000000000000008152600401610581906133c5565b60405180910390fd5b6004600083815260200190815260200160002060009054906101000a900473ffffffffffffffffffffffffffffffffffffffff169050919050565b60006105d08261087b565b90508073ffffffffffffffffffffffffffffffffffffffff168373ffffffffffffffffffffffffffffffffffffffff161415610641576040517f08c379a000000000000000000000000000000000000000000000000000000000815260040161063890613425565b60405180910390fd5b8073ffffffffffffffffffffffffffffffffffffffff1661066061142c565b73ffffffffffffffffffffffffffffffffffffffff16148061068f575061068e8161068961142c565b61121b565b5b6106ce576040517f08c379a00000000000000000000000000000000000000000000000000000000081526004016106c5906132e5565b60405180910390fd5b6106d88383611434565b505050565b6106ee6106e861142c565b826114ed565b61072d576040517f08c379a000000000000000000000000000000000000000000000000000000000815260040161072490613445565b60405180910390fd5b6107388383836115cb565b505050565b6060600061077161074d84611827565b60405160200161075d91906130f6565b6040516020818303038152906040526119d4565b9050600a8054905081610784919061377f565b9050600a81815481106107c0577f4e487b7100000000000000000000000000000000000000000000000000000000600052603260045260246000fd5b9060005260206000200180546107d590613704565b80601f016020809104026020016040519081016040528092919081815260200182805461080190613704565b801561084e5780601f106108235761010080835404028352916020019161084e565b820191906000526020600020905b81548152906001019060200180831161083157829003601f168201915b5050505050915050919050565b61087683838360405180602001604052806000815250610d16565b505050565b6000806002600084815260200190815260200160002060009054906101000a900473ffffffffffffffffffffffffffffffffffffffff169050600073ffffffffffffffffffffffffffffffffffffffff168173ffffffffffffffffffffffffffffffffffffffff161415610924576040517f08c379a000000000000000000000000000000000000000000000000000000000815260040161091b90613325565b60405180910390fd5b80915050919050565b60008073ffffffffffffffffffffffffffffffffffffffff168273ffffffffffffffffffffffffffffffffffffffff16141561099e576040517f08c379a000000000000000000000000000000000000000000000000000000000815260040161099590613305565b60405180910390fd5b600360008373ffffffffffffffffffffffffffffffffffffffff1673ffffffffffffffffffffffffffffffffffffffff168152602001908152602001600020549050919050565b6060600180546109f490613704565b80601f0160208091040260200160405190810160405280929190818152602001828054610a2090613704565b8015610a6d5780601f10610a4257610100808354040283529160200191610a6d565b820191906000526020600020905b815481529060010190602001808311610a5057829003601f168201915b5050505050905090565b610a7f61142c565b73ffffffffffffffffffffffffffffffffffffffff168273ffffffffffffffffffffffffffffffffffffffff161415610aed576040517f08c379a0000000000000000000000000000000000000000000000000000000008152600401610ae4906132a5565b60405180910390fd5b8060056000610afa61142c565b73ffffffffffffffffffffffffffffffffffffffff1673ffffffffffffffffffffffffffffffffffffffff16815260200190815260200160002060008473ffffffffffffffffffffffffffffffffffffffff1673ffffffffffffffffffffffffffffffffffffffff16815260200190815260200160002060006101000a81548160ff0219169083151502179055508173ffffffffffffffffffffffffffffffffffffffff16610ba761142c565b73ffffffffffffffffffffffffffffffffffffffff167f17307eab39ab6107e8899845ad3d59bd9653f200f220920489ca2b5937696c3183604051610bec91906131ca565b60405180910390a35050565b60606000610c2c610c0884611827565b604051602001610c18919061308f565b6040516020818303038152906040526119d4565b9050600b8054905081610c3f919061377f565b9050600b8181548110610c7b577f4e487b7100000000000000000000000000000000000000000000000000000000600052603260045260246000fd5b906000526020600020018054610c9090613704565b80601f0160208091040260200160405190810160405280929190818152602001828054610cbc90613704565b8015610d095780601f10610cde57610100808354040283529160200191610d09565b820191906000526020600020905b815481529060010190602001808311610cec57829003601f168201915b5050505050915050919050565b610d27610d2161142c565b836114ed565b610d66576040517f08c379a0000000000000000000000000000000000000000000000000000000008152600401610d5d90613445565b60405180910390fd5b610d7284848484611a07565b50505050565b60606000610dac610d8884611827565b604051602001610d98919061306d565b6040516020818303038152906040526119d4565b9050600c8054905081610dbf919061377f565b9050600c8181548110610dfb577f4e487b7100000000000000000000000000000000000000000000000000000000600052603260045260246000fd5b906000526020600020018054610e1090613704565b80601f0160208091040260200160405190810160405280929190818152602001828054610e3c90613704565b8015610e895780601f10610e5e57610100808354040283529160200191610e89565b820191906000526020600020905b815481529060010190602001808311610e6c57829003601f168201915b5050505050915050919050565b6060610ea1826113c0565b610ee0576040517f08c379a0000000000000000000000000000000000000000000000000000000008152600401610ed790613385565b60405180910390fd5b6000600660008481526020019081526020016000208054610f0090613704565b80601f0160208091040260200160405190810160405280929190818152602001828054610f2c90613704565b8015610f795780601f10610f4e57610100808354040283529160200191610f79565b820191906000526020600020905b815481529060010190602001808311610f5c57829003601f168201915b505050505090506000610f8a611a63565b9050600081511415610fa0578192505050610fe3565b600082511115610fd5578082604051602001610fbd929190612fe9565b60405160208183030381529060405292505050610fe3565b610fde84611a7a565b925050505b919050565b600854610ff361049d565b1115611034576040517f08c379a000000000000000000000000000000000000000000000000000000000815260040161102b906133a5565b60405180910390fd5b600061104060076113b2565b9050600061104d8261073d565b9050600061105a83610bf8565b9050600061106784610d78565b905060008383836040516020016110809392919061300d565b604051602081830303815290604052905060006009826040516020016110a792919061303e565b604051602081830303815290604052905060006110ec836110c784611b21565b6040516020016110d89291906130b1565b604051602081830303815290604052611b21565b90506000816040516020016111019190613118565b60405160208183030381529060405290506111506040518060400160405280601b81526020017f0a2d2d2d2d2d2d2d2d2d2d2d2d2d2d2d2d2d2d2d2d2d2d2d2d2d2d00000000008152506112af565b611159836112af565b6111976040518060400160405280601b81526020017f2d2d2d2d2d2d2d2d2d2d2d2d2d2d2d2d2d2d2d2d2d2d2d2d2d2d0a00000000008152506112af565b6111a13389611cdf565b6111ab8882611cfd565b6111b56007611d71565b6111d86040518060600160405280602281526020016138da602291398933611d87565b7febb98688741ffa4c7589bf325de30cf7becb63de567842e1ccdb6cb949fdc82c33896040516112099291906131a1565b60405180910390a15050505050505050565b6000600560008473ffffffffffffffffffffffffffffffffffffffff1673ffffffffffffffffffffffffffffffffffffffff16815260200190815260200160002060008373ffffffffffffffffffffffffffffffffffffffff1673ffffffffffffffffffffffffffffffffffffffff16815260200190815260200160002060009054906101000a900460ff16905092915050565b611345816040516024016112c391906131e5565b6040516020818303038152906040527f41304fac000000000000000000000000000000000000000000000000000000007bffffffffffffffffffffffffffffffffffffffffffffffffffffffff19166020820180517bffffffffffffffffffffffffffffffffffffffffffffffffffffffff8381831617835250505050611e26565b50565b60007f01ffc9a7000000000000000000000000000000000000000000000000000000007bffffffffffffffffffffffffffffffffffffffffffffffffffffffff1916827bffffffffffffffffffffffffffffffffffffffffffffffffffffffff1916149050919050565b600081600001549050919050565b60008073ffffffffffffffffffffffffffffffffffffffff166002600084815260200190815260200160002060009054906101000a900473ffffffffffffffffffffffffffffffffffffffff1673ffffffffffffffffffffffffffffffffffffffff1614159050919050565b600033905090565b816004600083815260200190815260200160002060006101000a81548173ffffffffffffffffffffffffffffffffffffffff021916908373ffffffffffffffffffffffffffffffffffffffff160217905550808273ffffffffffffffffffffffffffffffffffffffff166114a78361087b565b73ffffffffffffffffffffffffffffffffffffffff167f8c5be1e5ebec7d5bd14f71427d1e84f3dd0314c0f7b2291e5b200ac8c7c3b92560405160405180910390a45050565b60006114f8826113c0565b611537576040517f08c379a000000000000000000000000000000000000000000000000000000000815260040161152e906132c5565b60405180910390fd5b60006115428361087b565b90508073ffffffffffffffffffffffffffffffffffffffff168473ffffffffffffffffffffffffffffffffffffffff1614806115b157508373ffffffffffffffffffffffffffffffffffffffff1661159984610540565b73ffffffffffffffffffffffffffffffffffffffff16145b806115c257506115c1818561121b565b5b91505092915050565b8273ffffffffffffffffffffffffffffffffffffffff166115eb8261087b565b73ffffffffffffffffffffffffffffffffffffffff1614611641576040517f08c379a0000000000000000000000000000000000000000000000000000000008152600401611638906133e5565b60405180910390fd5b600073ffffffffffffffffffffffffffffffffffffffff168273ffffffffffffffffffffffffffffffffffffffff1614156116b1576040517f08c379a00000000000000000000000000000000000000000000000000000000081526004016116a890613285565b60405180910390fd5b6116bc838383611e4f565b6116c7600082611434565b6001600360008573ffffffffffffffffffffffffffffffffffffffff1673ffffffffffffffffffffffffffffffffffffffff1681526020019081526020016000206000828254611717919061361a565b925050819055506001600360008473ffffffffffffffffffffffffffffffffffffffff1673ffffffffffffffffffffffffffffffffffffffff168152602001908152602001600020600082825461176e9190613539565b92505081905550816002600083815260200190815260200160002060006101000a81548173ffffffffffffffffffffffffffffffffffffffff021916908373ffffffffffffffffffffffffffffffffffffffff160217905550808273ffffffffffffffffffffffffffffffffffffffff168473ffffffffffffffffffffffffffffffffffffffff167fddf252ad1be2c89b69c2b068fc378daa952ba7f163c4a11628f55a4df523b3ef60405160405180910390a4505050565b6060600082141561186f576040518060400160405280600181526020017f300000000000000000000000000000000000000000000000000000000000000081525090506119cf565b600082905060005b600082146118a157808061188a90613736565b915050600a8261189a919061358f565b9150611877565b60008167ffffffffffffffff8111156118e3577f4e487b7100000000000000000000000000000000000000000000000000000000600052604160045260246000fd5b6040519080825280601f01601f1916602001820160405280156119155781602001600182028036833780820191505090505b5090505b600085146119c85760018261192e919061361a565b9150600a8561193d919061377f565b60306119499190613539565b60f81b818381518110611985577f4e487b7100000000000000000000000000000000000000000000000000000000600052603260045260246000fd5b60200101907effffffffffffffffffffffffffffffffffffffffffffffffffffffffffffff1916908160001a905350600a856119c1919061358f565b9450611919565b8093505050505b919050565b6000816040516020016119e79190612fd2565b6040516020818303038152906040528051906020012060001c9050919050565b611a128484846115cb565b611a1e84848484611e54565b611a5d576040517f08c379a0000000000000000000000000000000000000000000000000000000008152600401611a5490613245565b60405180910390fd5b50505050565b606060405180602001604052806000815250905090565b6060611a85826113c0565b611ac4576040517f08c379a0000000000000000000000000000000000000000000000000000000008152600401611abb90613405565b60405180910390fd5b6000611ace611a63565b90506000815111611aee5760405180602001604052806000815250611b19565b80611af884611827565b604051602001611b09929190612fe9565b6040516020818303038152906040525b915050919050565b60606000825190506000811415611b4a5760405180602001604052806000815250915050611cda565b60006003600283611b5b9190613539565b611b65919061358f565b6004611b7191906135c0565b90506000602082611b829190613539565b67ffffffffffffffff811115611bc1577f4e487b7100000000000000000000000000000000000000000000000000000000600052604160045260246000fd5b6040519080825280601f01601f191660200182016040528015611bf35781602001600182028036833780820191505090505b50905060006040518060600160405280604081526020016138fc604091399050600181016020830160005b86811015611c975760038101905062ffffff818a015116603f8160121c168401518060081b905060ff603f83600c1c1686015116810190508060081b905060ff603f8360061c1686015116810190508060081b905060ff603f831686015116810190508060e01b90508084526004840193505050611c1e565b506003860660018114611cb15760028114611cc157611ccc565b613d3d60f01b6002830352611ccc565b603d60f81b60018303525b508484525050819450505050505b919050565b611cf9828260405180602001604052806000815250611feb565b5050565b611d06826113c0565b611d45576040517f08c379a0000000000000000000000000000000000000000000000000000000008152600401611d3c90613345565b60405180910390fd5b80600660008481526020019081526020016000209080519060200190611d6c929190612227565b505050565b6001816000016000828254019250508190555050565b611e21838383604051602401611d9f93929190613207565b6040516020818303038152906040527fe3849f79000000000000000000000000000000000000000000000000000000007bffffffffffffffffffffffffffffffffffffffffffffffffffffffff19166020820180517bffffffffffffffffffffffffffffffffffffffffffffffffffffffff8381831617835250505050611e26565b505050565b60008151905060006a636f6e736f6c652e6c6f679050602083016000808483855afa5050505050565b505050565b6000611e758473ffffffffffffffffffffffffffffffffffffffff16612046565b15611fde578373ffffffffffffffffffffffffffffffffffffffff1663150b7a02611e9e61142c565b8786866040518563ffffffff1660e01b8152600401611ec09493929190613155565b602060405180830381600087803b158015611eda57600080fd5b505af1925050508015611f0b57506040513d601f19601f82011682018060405250810190611f08919061256b565b60015b611f8e573d8060008114611f3b576040519150601f19603f3d011682016040523d82523d6000602084013e611f40565b606091505b50600081511415611f86576040517f08c379a0000000000000000000000000000000000000000000000000000000008152600401611f7d90613245565b60405180910390fd5b805181602001fd5b63150b7a0260e01b7bffffffffffffffffffffffffffffffffffffffffffffffffffffffff1916817bffffffffffffffffffffffffffffffffffffffffffffffffffffffff191614915050611fe3565b600190505b949350505050565b611ff58383612059565b6120026000848484611e54565b612041576040517f08c379a000000000000000000000000000000000000000000000000000000000815260040161203890613245565b60405180910390fd5b505050565b600080823b905060008111915050919050565b600073ffffffffffffffffffffffffffffffffffffffff168273ffffffffffffffffffffffffffffffffffffffff1614156120c9576040517f08c379a00000000000000000000000000000000000000000000000000000000081526004016120c090613365565b60405180910390fd5b6120d2816113c0565b15612112576040517f08c379a000000000000000000000000000000000000000000000000000000000815260040161210990613265565b60405180910390fd5b61211e60008383611e4f565b6001600360008473ffffffffffffffffffffffffffffffffffffffff1673ffffffffffffffffffffffffffffffffffffffff168152602001908152602001600020600082825461216e9190613539565b92505081905550816002600083815260200190815260200160002060006101000a81548173ffffffffffffffffffffffffffffffffffffffff021916908373ffffffffffffffffffffffffffffffffffffffff160217905550808273ffffffffffffffffffffffffffffffffffffffff16600073ffffffffffffffffffffffffffffffffffffffff167fddf252ad1be2c89b69c2b068fc378daa952ba7f163c4a11628f55a4df523b3ef60405160405180910390a45050565b82805461223390613704565b90600052602060002090601f016020900481019282612255576000855561229c565b82601f1061226e57805160ff191683800117855561229c565b8280016001018555821561229c579182015b8281111561229b578251825591602001919060010190612280565b5b5090506122a991906122ad565b5090565b5b808211156122c65760008160009055506001016122ae565b5090565b60006122dd6122d8846134b1565b613480565b9050828152602081018484840111156122f557600080fd5b6123008482856136c2565b509392505050565b6000813590506123178161387d565b92915050565b60008135905061232c81613894565b92915050565b600081359050612341816138ab565b92915050565b600081519050612356816138ab565b92915050565b600082601f83011261236d57600080fd5b813561237d8482602086016122ca565b91505092915050565b600081359050612395816138c2565b92915050565b6000602082840312156123ad57600080fd5b60006123bb84828501612308565b91505092915050565b600080604083850312156123d757600080fd5b60006123e585828601612308565b92505060206123f685828601612308565b9150509250929050565b60008060006060848603121561241557600080fd5b600061242386828701612308565b935050602061243486828701612308565b925050604061244586828701612386565b9150509250925092565b6000806000806080858703121561246557600080fd5b600061247387828801612308565b945050602061248487828801612308565b935050604061249587828801612386565b925050606085013567ffffffffffffffff8111156124b257600080fd5b6124be8782880161235c565b91505092959194509250565b600080604083850312156124dd57600080fd5b60006124eb85828601612308565b92505060206124fc8582860161231d565b9150509250929050565b6000806040838503121561251957600080fd5b600061252785828601612308565b925050602061253885828601612386565b9150509250929050565b60006020828403121561255457600080fd5b600061256284828501612332565b91505092915050565b60006020828403121561257d57600080fd5b600061258b84828501612347565b91505092915050565b6000602082840312156125a657600080fd5b60006125b484828501612386565b91505092915050565b6125c68161364e565b82525050565b6125d581613660565b82525050565b60006125e6826134f6565b6125f0818561350c565b93506126008185602086016136d1565b6126098161386c565b840191505092915050565b600061261f82613501565b612629818561351d565b93506126398185602086016136d1565b6126428161386c565b840191505092915050565b600061265882613501565b612662818561352e565b93506126728185602086016136d1565b80840191505092915050565b6000815461268b81613704565b612695818661352e565b945060018216600081146126b057600181146126c1576126f4565b60ff198316865281860193506126f4565b6126ca856134e1565b60005b838110156126ec578154818901526001820191506020810190506126cd565b838801955050505b50505092915050565b600061270a60768361352e565b91507f222c20226465736372697074696f6e223a20224120686967686c79206163636c60008301527f61696d656420636f6c6c656374696f6e73206f6620696d6167657320636f6d7060208301527f6f736564206f66203320776f726473222c2022696d616765223a20226461746160408301527f3a696d6167652f7376672b786d6c3b6261736536342c000000000000000000006060830152607682019050919050565b60006127bc60328361351d565b91507f4552433732313a207472616e7366657220746f206e6f6e20455243373231526560008301527f63656976657220696d706c656d656e74657200000000000000000000000000006020830152604082019050919050565b6000612822601c8361351d565b91507f4552433732313a20746f6b656e20616c7265616479206d696e746564000000006000830152602082019050919050565b6000612862600a8361352e565b91507f54484952445f574f5244000000000000000000000000000000000000000000006000830152600a82019050919050565b60006128a260248361351d565b91507f4552433732313a207472616e7366657220746f20746865207a65726f2061646460008301527f72657373000000000000000000000000000000000000000000000000000000006020830152604082019050919050565b600061290860198361351d565b91507f4552433732313a20617070726f766520746f2063616c6c6572000000000000006000830152602082019050919050565b6000612948600b8361352e565b91507f5345434f4e445f574f52440000000000000000000000000000000000000000006000830152600b82019050919050565b6000612988602c8361351d565b91507f4552433732313a206f70657261746f7220717565727920666f72206e6f6e657860008301527f697374656e7420746f6b656e00000000000000000000000000000000000000006020830152604082019050919050565b60006129ee600d8361352e565b91507f3c2f746578743e3c2f7376673e000000000000000000000000000000000000006000830152600d82019050919050565b6000612a2e60388361351d565b91507f4552433732313a20617070726f76652063616c6c6572206973206e6f74206f7760008301527f6e6572206e6f7220617070726f76656420666f7220616c6c00000000000000006020830152604082019050919050565b6000612a94602a8361351d565b91507f4552433732313a2062616c616e636520717565727920666f7220746865207a6560008301527f726f2061646472657373000000000000000000000000000000000000000000006020830152604082019050919050565b6000612afa60298361351d565b91507f4552433732313a206f776e657220717565727920666f72206e6f6e657869737460008301527f656e7420746f6b656e00000000000000000000000000000000000000000000006020830152604082019050919050565b6000612b60602e8361351d565b91507f45524337323155524953746f726167653a2055524920736574206f66206e6f6e60008301527f6578697374656e7420746f6b656e0000000000000000000000000000000000006020830152604082019050919050565b6000612bc660028361352e565b91507f227d0000000000000000000000000000000000000000000000000000000000006000830152600282019050919050565b6000612c0660208361351d565b91507f4552433732313a206d696e7420746f20746865207a65726f20616464726573736000830152602082019050919050565b6000612c4660318361351d565b91507f45524337323155524953746f726167653a2055524920717565727920666f722060008301527f6e6f6e6578697374656e7420746f6b656e0000000000000000000000000000006020830152604082019050919050565b6000612cac603a8361351d565b91507f4e4654206c696d697420686173206265656e20726561636865642c207468657260008301527f6520617265206e6f204e465473206c65667420746f204d696e740000000000006020830152604082019050919050565b6000612d12602c8361351d565b91507f4552433732313a20617070726f76656420717565727920666f72206e6f6e657860008301527f697374656e7420746f6b656e00000000000000000000000000000000000000006020830152604082019050919050565b6000612d7860298361351d565b91507f4552433732313a207472616e73666572206f6620746f6b656e2074686174206960008301527f73206e6f74206f776e00000000000000000000000000000000000000000000006020830152604082019050919050565b6000612dde602f8361351d565b91507f4552433732314d657461646174613a2055524920717565727920666f72206e6f60008301527f6e6578697374656e7420746f6b656e00000000000000000000000000000000006020830152604082019050919050565b6000612e44600a8361352e565b91507f7b226e616d65223a2022000000000000000000000000000000000000000000006000830152600a82019050919050565b6000612e8460218361351d565b91507f4552433732313a20617070726f76616c20746f2063757272656e74206f776e6560008301527f72000000000000000000000000000000000000000000000000000000000000006020830152604082019050919050565b6000612eea600a8361352e565b91507f46495253545f574f5244000000000000000000000000000000000000000000006000830152600a82019050919050565b6000612f2a601d8361352e565b91507f646174613a6170706c69636174696f6e2f6a736f6e3b6261736536342c0000006000830152601d82019050919050565b6000612f6a60318361351d565b91507f4552433732313a207472616e736665722063616c6c6572206973206e6f74206f60008301527f776e6572206e6f7220617070726f7665640000000000000000000000000000006020830152604082019050919050565b612fcc816136b8565b82525050565b6000612fde828461264d565b915081905092915050565b6000612ff5828561264d565b9150613001828461264d565b91508190509392505050565b6000613019828661264d565b9150613025828561264d565b9150613031828461264d565b9150819050949350505050565b600061304a828561267e565b9150613056828461264d565b9150613061826129e1565b91508190509392505050565b600061307882612855565b9150613084828461264d565b915081905092915050565b600061309a8261293b565b91506130a6828461264d565b915081905092915050565b60006130bc82612e37565b91506130c8828561264d565b91506130d3826126fd565b91506130df828461264d565b91506130ea82612bb9565b91508190509392505050565b600061310182612edd565b915061310d828461264d565b915081905092915050565b600061312382612f1d565b915061312f828461264d565b915081905092915050565b600060208201905061314f60008301846125bd565b92915050565b600060808201905061316a60008301876125bd565b61317760208301866125bd565b6131846040830185612fc3565b818103606083015261319681846125db565b905095945050505050565b60006040820190506131b660008301856125bd565b6131c36020830184612fc3565b9392505050565b60006020820190506131df60008301846125cc565b92915050565b600060208201905081810360008301526131ff8184612614565b905092915050565b600060608201905081810360008301526132218186612614565b90506132306020830185612fc3565b61323d60408301846125bd565b949350505050565b6000602082019050818103600083015261325e816127af565b9050919050565b6000602082019050818103600083015261327e81612815565b9050919050565b6000602082019050818103600083015261329e81612895565b9050919050565b600060208201905081810360008301526132be816128fb565b9050919050565b600060208201905081810360008301526132de8161297b565b9050919050565b600060208201905081810360008301526132fe81612a21565b9050919050565b6000602082019050818103600083015261331e81612a87565b9050919050565b6000602082019050818103600083015261333e81612aed565b9050919050565b6000602082019050818103600083015261335e81612b53565b9050919050565b6000602082019050818103600083015261337e81612bf9565b9050919050565b6000602082019050818103600083015261339e81612c39565b9050919050565b600060208201905081810360008301526133be81612c9f565b9050919050565b600060208201905081810360008301526133de81612d05565b9050919050565b600060208201905081810360008301526133fe81612d6b565b9050919050565b6000602082019050818103600083015261341e81612dd1565b9050919050565b6000602082019050818103600083015261343e81612e77565b9050919050565b6000602082019050818103600083015261345e81612f5d565b9050919050565b600060208201905061347a6000830184612fc3565b92915050565b6000604051905081810181811067ffffffffffffffff821117156134a7576134a661383d565b5b8060405250919050565b600067ffffffffffffffff8211156134cc576134cb61383d565b5b601f19601f8301169050602081019050919050565b60008190508160005260206000209050919050565b600081519050919050565b600081519050919050565b600082825260208201905092915050565b600082825260208201905092915050565b600081905092915050565b6000613544826136b8565b915061354f836136b8565b9250827fffffffffffffffffffffffffffffffffffffffffffffffffffffffffffffffff03821115613584576135836137b0565b5b828201905092915050565b600061359a826136b8565b91506135a5836136b8565b9250826135b5576135b46137df565b5b828204905092915050565b60006135cb826136b8565b91506135d6836136b8565b9250817fffffffffffffffffffffffffffffffffffffffffffffffffffffffffffffffff048311821515161561360f5761360e6137b0565b5b828202905092915050565b6000613625826136b8565b9150613630836136b8565b925082821015613643576136426137b0565b5b828203905092915050565b600061365982613698565b9050919050565b60008115159050919050565b60007fffffffff0000000000000000000000000000000000000000000000000000000082169050919050565b600073ffffffffffffffffffffffffffffffffffffffff82169050919050565b6000819050919050565b82818337600083830152505050565b60005b838110156136ef5780820151818401526020810190506136d4565b838111156136fe576000848401525b50505050565b6000600282049050600182168061371c57607f821691505b602082108114156137305761372f61380e565b5b50919050565b6000613741826136b8565b91507fffffffffffffffffffffffffffffffffffffffffffffffffffffffffffffffff821415613774576137736137b0565b5b600182019050919050565b600061378a826136b8565b9150613795836136b8565b9250826137a5576137a46137df565b5b828206905092915050565b7f4e487b7100000000000000000000000000000000000000000000000000000000600052601160045260246000fd5b7f4e487b7100000000000000000000000000000000000000000000000000000000600052601260045260246000fd5b7f4e487b7100000000000000000000000000000000000000000000000000000000600052602260045260246000fd5b7f4e487b7100000000000000000000000000000000000000000000000000000000600052604160045260246000fd5b6000601f19601f8301169050919050565b6138868161364e565b811461389157600080fd5b50565b61389d81613660565b81146138a857600080fd5b50565b6138b48161366c565b81146138bf57600080fd5b50565b6138cb816136b8565b81146138d657600080fd5b5056fe416e204e465420772f20494420257320686173206265656e206d696e7465642025734142434445464748494a4b4c4d4e4f505152535455565758595a6162636465666768696a6b6c6d6e6f707172737475767778797a303132333435363738392b2fa264697066735822122068c234d2e7c6d08ed51de0593e7ea2b1c520734c73c0090a98a7895d9589d00464736f6c634300080000333c73766720786d6c6e733d27687474703a2f2f7777772e77332e6f72672f323030302f73766727207072657365727665417370656374526174696f3d27784d696e594d696e206d656574272076696577426f783d273020302033353020333530273e3c7374796c653e2e62617365207b2066696c6c3a2077686974653b20666f6e742d66616d696c793a2073657269663b20666f6e742d73697a653a20323470783b207d3c2f7374796c653e3c726563742077696474683d273130302527206865696768743d2731303025272066696c6c3d27626c61636b27202f3e3c7465787420783d273530252720793d273530252720636c6173733d27626173652720646f6d696e616e742d626173656c696e653d276d6964646c652720746578742d616e63686f723d276d6964646c65273e",
  "linkReferences": {},
  "deployedLinkReferences": {}
}