{
  "_format": "hh-sol-artifact-1",
  "contractName": "MyEpicNFT",
  "sourceName": "contracts/MyEpicNFT.sol",
  "abi": [
    {
      "inputs": [],
      "stateMutability": "nonpayable",
      "type": "constructor"
    },
    {
      "anonymous": false,
      "inputs": [
        {
          "indexed": true,
          "internalType": "address",
          "name": "owner",
          "type": "address"
        },
        {
          "indexed": true,
          "internalType": "address",
          "name": "approved",
          "type": "address"
        },
        {
          "indexed": true,
          "internalType": "uint256",
          "name": "tokenId",
          "type": "uint256"
        }
      ],
      "name": "Approval",
      "type": "event"
    },
    {
      "anonymous": false,
      "inputs": [
        {
          "indexed": true,
          "internalType": "address",
          "name": "owner",
          "type": "address"
        },
        {
          "indexed": true,
          "internalType": "address",
          "name": "operator",
          "type": "address"
        },
        {
          "indexed": false,
          "internalType": "bool",
          "name": "approved",
          "type": "bool"
        }
      ],
      "name": "ApprovalForAll",
      "type": "event"
    },
    {
      "anonymous": false,
      "inputs": [
        {
          "indexed": false,
          "internalType": "address",
          "name": "sender",
          "type": "address"
        },
        {
          "indexed": false,
          "internalType": "uint256",
          "name": "tokenId",
          "type": "uint256"
        }
      ],
      "name": "NewEpicNFTMinted",
      "type": "event"
    },
    {
      "anonymous": false,
      "inputs": [
        {
          "indexed": true,
          "internalType": "address",
          "name": "from",
          "type": "address"
        },
        {
          "indexed": true,
          "internalType": "address",
          "name": "to",
          "type": "address"
        },
        {
          "indexed": true,
          "internalType": "uint256",
          "name": "tokenId",
          "type": "uint256"
        }
      ],
      "name": "Transfer",
      "type": "event"
    },
    {
      "inputs": [
        {
          "internalType": "address",
          "name": "to",
          "type": "address"
        },
        {
          "internalType": "uint256",
          "name": "tokenId",
          "type": "uint256"
        }
      ],
      "name": "approve",
      "outputs": [],
      "stateMutability": "nonpayable",
      "type": "function"
    },
    {
      "inputs": [
        {
          "internalType": "address",
          "name": "owner",
          "type": "address"
        }
      ],
      "name": "balanceOf",
      "outputs": [
        {
          "internalType": "uint256",
          "name": "",
          "type": "uint256"
        }
      ],
      "stateMutability": "view",
      "type": "function"
    },
    {
      "inputs": [
        {
          "internalType": "uint256",
          "name": "tokenId",
          "type": "uint256"
        }
      ],
      "name": "getApproved",
      "outputs": [
        {
          "internalType": "address",
          "name": "",
          "type": "address"
        }
      ],
      "stateMutability": "view",
      "type": "function"
    },
    {
      "inputs": [],
      "name": "getTotalNFTsMintedSoFar",
      "outputs": [
        {
          "internalType": "uint256",
          "name": "",
          "type": "uint256"
        }
      ],
      "stateMutability": "view",
      "type": "function"
    },
    {
      "inputs": [
        {
          "internalType": "address",
          "name": "owner",
          "type": "address"
        },
        {
          "internalType": "address",
          "name": "operator",
          "type": "address"
        }
      ],
      "name": "isApprovedForAll",
      "outputs": [
        {
          "internalType": "bool",
          "name": "",
          "type": "bool"
        }
      ],
      "stateMutability": "view",
      "type": "function"
    },
    {
      "inputs": [],
      "name": "make3WordNFT",
      "outputs": [],
      "stateMutability": "nonpayable",
      "type": "function"
    },
    {
      "inputs": [],
      "name": "name",
      "outputs": [
        {
          "internalType": "string",
          "name": "",
          "type": "string"
        }
      ],
      "stateMutability": "view",
      "type": "function"
    },
    {
      "inputs": [
        {
          "internalType": "uint256",
          "name": "tokenId",
          "type": "uint256"
        }
      ],
      "name": "ownerOf",
      "outputs": [
        {
          "internalType": "address",
          "name": "",
          "type": "address"
        }
      ],
      "stateMutability": "view",
      "type": "function"
    },
    {
      "inputs": [
        {
          "internalType": "uint256",
          "name": "tokenId",
          "type": "uint256"
        }
      ],
      "name": "pickRandomFirstWord",
      "outputs": [
        {
          "internalType": "string",
          "name": "",
          "type": "string"
        }
      ],
      "stateMutability": "view",
      "type": "function"
    },
    {
      "inputs": [
        {
          "internalType": "uint256",
          "name": "tokenId",
          "type": "uint256"
        }
      ],
      "name": "pickRandomSecondWord",
      "outputs": [
        {
          "internalType": "string",
          "name": "",
          "type": "string"
        }
      ],
      "stateMutability": "view",
      "type": "function"
    },
    {
      "inputs": [
        {
          "internalType": "uint256",
          "name": "tokenId",
          "type": "uint256"
        }
      ],
      "name": "pickRandomThirdWord",
      "outputs": [
        {
          "internalType": "string",
          "name": "",
          "type": "string"
        }
      ],
      "stateMutability": "view",
      "type": "function"
    },
    {
      "inputs": [
        {
          "internalType": "address",
          "name": "from",
          "type": "address"
        },
        {
          "internalType": "address",
          "name": "to",
          "type": "address"
        },
        {
          "internalType": "uint256",
          "name": "tokenId",
          "type": "uint256"
        }
      ],
      "name": "safeTransferFrom",
      "outputs": [],
      "stateMutability": "nonpayable",
      "type": "function"
    },
    {
      "inputs": [
        {
          "internalType": "address",
          "name": "from",
          "type": "address"
        },
        {
          "internalType": "address",
          "name": "to",
          "type": "address"
        },
        {
          "internalType": "uint256",
          "name": "tokenId",
          "type": "uint256"
        },
        {
          "internalType": "bytes",
          "name": "_data",
          "type": "bytes"
        }
      ],
      "name": "safeTransferFrom",
      "outputs": [],
      "stateMutability": "nonpayable",
      "type": "function"
    },
    {
      "inputs": [
        {
          "internalType": "address",
          "name": "operator",
          "type": "address"
        },
        {
          "internalType": "bool",
          "name": "approved",
          "type": "bool"
        }
      ],
      "name": "setApprovalForAll",
      "outputs": [],
      "stateMutability": "nonpayable",
      "type": "function"
    },
    {
      "inputs": [
        {
          "internalType": "bytes4",
          "name": "interfaceId",
          "type": "bytes4"
        }
      ],
      "name": "supportsInterface",
      "outputs": [
        {
          "internalType": "bool",
          "name": "",
          "type": "bool"
        }
      ],
      "stateMutability": "view",
      "type": "function"
    },
    {
      "inputs": [],
      "name": "symbol",
      "outputs": [
        {
          "internalType": "string",
          "name": "",
          "type": "string"
        }
      ],
      "stateMutability": "view",
      "type": "function"
    },
    {
      "inputs": [
        {
          "internalType": "uint256",
          "name": "tokenId",
          "type": "uint256"
        }
      ],
      "name": "tokenURI",
      "outputs": [
        {
          "internalType": "string",
          "name": "",
          "type": "string"
        }
      ],
      "stateMutability": "view",
      "type": "function"
    },
    {
      "inputs": [
        {
          "internalType": "address",
          "name": "from",
          "type": "address"
        },
        {
          "internalType": "address",
          "name": "to",
          "type": "address"
        },
        {
          "internalType": "uint256",
          "name": "tokenId",
          "type": "uint256"
        }
      ],
      "name": "transferFrom",
      "outputs": [],
      "stateMutability": "nonpayable",
      "type": "function"
    }
  ],
  "bytecode": "0x6080604052606360085560405180610160016040528061012f815260200162004bc861012f9139600990805190602001906200003d92919062000f83565b506040518061022001604052806040518060400160405280600781526020017f416e6e6f7965640000000000000000000000000000000000000000000000000081525081526020016040518060400160405280600581526020017f47726f737300000000000000000000000000000000000000000000000000000081525081526020016040518060400160405280600981526020017f44656c696768746564000000000000000000000000000000000000000000000081525081526020016040518060400160405280600781526020017f4f6d696e6f75730000000000000000000000000000000000000000000000000081525081526020016040518060400160405280600a81526020017f446973686576656c65640000000000000000000000000000000000000000000081525081526020016040518060400160405280600681526020017f46696c746879000000000000000000000000000000000000000000000000000081525081526020016040518060400160405280600881526020017f477261636566756c00000000000000000000000000000000000000000000000081525081526020016040518060400160405280600881526020017f486f6d656c65737300000000000000000000000000000000000000000000000081525081526020016040518060400160405280600681526020017f446f63696c65000000000000000000000000000000000000000000000000000081525081526020016040518060400160405280600781526020017f4164616d616e740000000000000000000000000000000000000000000000000081525081526020016040518060400160405280600681526020017f436f736d6963000000000000000000000000000000000000000000000000000081525081526020016040518060400160405280600881526020017f486f6c697374696300000000000000000000000000000000000000000000000081525081526020016040518060400160405280600481526020017f4d6567610000000000000000000000000000000000000000000000000000000081525081526020016040518060400160405280600b81526020017f4d6963726f73636f70696300000000000000000000000000000000000000000081525081526020016040518060400160405280600981526020017f4c6574686172676963000000000000000000000000000000000000000000000081525081526020016040518060400160405280600481526020017f4c6f73740000000000000000000000000000000000000000000000000000000081525081526020016040518060400160405280600a81526020017f44657465726d696e656400000000000000000000000000000000000000000000815250815250600a9060116200044592919062001014565b506040518061024001604052806040518060400160405280600681526020017f4a756e676c65000000000000000000000000000000000000000000000000000081525081526020016040518060400160405280600881526020017f506176656d656e7400000000000000000000000000000000000000000000000081525081526020016040518060400160405280600881526020017f53616e647769636800000000000000000000000000000000000000000000000081525081526020016040518060400160405280600781526020017f4b6574636875700000000000000000000000000000000000000000000000000081525081526020016040518060400160405280600481526020017f4c696d650000000000000000000000000000000000000000000000000000000081525081526020016040518060400160405280600381526020017f436170000000000000000000000000000000000000000000000000000000000081525081526020016040518060400160405280600381526020017f496d70000000000000000000000000000000000000000000000000000000000081525081526020016040518060400160405280600581526020017f43616d656c00000000000000000000000000000000000000000000000000000081525081526020016040518060400160405280600681526020017f436163747573000000000000000000000000000000000000000000000000000081525081526020016040518060400160405280600581526020017f446561746800000000000000000000000000000000000000000000000000000081525081526020016040518060400160405280600681526020017f5475726b6579000000000000000000000000000000000000000000000000000081525081526020016040518060400160405280600881526020017f436f6d6d616e646f00000000000000000000000000000000000000000000000081525081526020016040518060400160405280600781526020017f5069616e6973740000000000000000000000000000000000000000000000000081525081526020016040518060400160405280600a81526020017f536375626164697665720000000000000000000000000000000000000000000081525081526020016040518060400160405280600681526020017f42616c756761000000000000000000000000000000000000000000000000000081525081526020016040518060400160405280600781526020017f53656c747a65720000000000000000000000000000000000000000000000000081525081526020016040518060400160405280600681526020017f42756c646765000000000000000000000000000000000000000000000000000081525081526020016040518060400160405280600481526020017f536f756c00000000000000000000000000000000000000000000000000000000815250815250600b906012620008889291906200107b565b50604051806102c001604052806040518060400160405280600481526020017f536b65770000000000000000000000000000000000000000000000000000000081525081526020016040518060400160405280600981526020017f426c61737068656d79000000000000000000000000000000000000000000000081525081526020016040518060400160405280600581526020017f556e69746500000000000000000000000000000000000000000000000000000081525081526020016040518060400160405280600681526020017f537072696e74000000000000000000000000000000000000000000000000000081525081526020016040518060400160405280600481526020017f4c6966740000000000000000000000000000000000000000000000000000000081525081526020016040518060400160405280600a81526020017f4b617261746563686f700000000000000000000000000000000000000000000081525081526020016040518060400160405280600c81526020017f54656c656b696e6574696373000000000000000000000000000000000000000081525081526020016040518060400160405280600581526020017f4d6167696300000000000000000000000000000000000000000000000000000081525081526020016040518060400160405280600881526020017f437265616d70696500000000000000000000000000000000000000000000000081525081526020016040518060400160405280600b81526020017f4465737472756374696f6e00000000000000000000000000000000000000000081525081526020016040518060400160405280600481526020017f467570610000000000000000000000000000000000000000000000000000000081525081526020016040518060400160405280600681526020017f566f6c6c6579000000000000000000000000000000000000000000000000000081525081526020016040518060400160405280600881526020017f557070657263757400000000000000000000000000000000000000000000000081525081526020016040518060400160405280600481526020017f547269700000000000000000000000000000000000000000000000000000000081525081526020016040518060400160405280600a81526020017f4b616d6568616d6568610000000000000000000000000000000000000000000081525081526020016040518060400160405280600581526020017f476c69646500000000000000000000000000000000000000000000000000000081525081526020016040518060400160405280600481526020017f526176650000000000000000000000000000000000000000000000000000000081525081526020016040518060400160405280600881526020017f4372656174696f6e00000000000000000000000000000000000000000000000081525081526020016040518060400160405280600b81526020017f4465766173746174696f6e00000000000000000000000000000000000000000081525081526020016040518060400160405280600881526020017f4d616e696665737400000000000000000000000000000000000000000000000081525081526020016040518060400160405280600981526020017f43616c63756c617465000000000000000000000000000000000000000000000081525081526020016040518060400160405280600481526020017f4272657700000000000000000000000000000000000000000000000000000000815250815250600c90601662000db7929190620010e2565b5034801562000dc557600080fd5b506040518060400160405280600981526020017f33576f7264734e465400000000000000000000000000000000000000000000008152506040518060400160405280600681526020017f33574f5244530000000000000000000000000000000000000000000000000000815250816000908051906020019062000e4a92919062000f83565b50806001908051906020019062000e6392919062000f83565b50505062000eb16040518060400160405280601e81526020017f54686973206973206d79204e465420436f6e74726163742e204e69636521000081525062000eb760201b620012791760201c565b62001303565b62000f578160405160240162000ece919062001217565b6040516020818303038152906040527f41304fac000000000000000000000000000000000000000000000000000000007bffffffffffffffffffffffffffffffffffffffffffffffffffffffff19166020820180517bffffffffffffffffffffffffffffffffffffffffffffffffffffffff838183161783525050505062000f5a60201b60201c565b50565b60008151905060006a636f6e736f6c652e6c6f679050602083016000808483855afa5050505050565b82805462000f91906200128d565b90600052602060002090601f01602090048101928262000fb5576000855562001001565b82601f1062000fd057805160ff191683800117855562001001565b8280016001018555821562001001579182015b828111156200100057825182559160200191906001019062000fe3565b5b50905062001010919062001149565b5090565b82805482825590600052602060002090810192821562001068579160200282015b82811115620010675782518290805190602001906200105692919062000f83565b509160200191906001019062001035565b5b50905062001077919062001168565b5090565b828054828255906000526020600020908101928215620010cf579160200282015b82811115620010ce578251829080519060200190620010bd92919062000f83565b50916020019190600101906200109c565b5b509050620010de919062001168565b5090565b82805482825590600052602060002090810192821562001136579160200282015b82811115620011355782518290805190602001906200112492919062000f83565b509160200191906001019062001103565b5b50905062001145919062001168565b5090565b5b80821115620011645760008160009055506001016200114a565b5090565b5b808211156200118c576000818162001182919062001190565b5060010162001169565b5090565b5080546200119e906200128d565b6000825580601f10620011b25750620011d3565b601f016020900490600052602060002090810190620011d2919062001149565b5b50565b6000620011e3826200123b565b620011ef818562001246565b93506200120181856020860162001257565b6200120c81620012f2565b840191505092915050565b60006020820190508181036000830152620012338184620011d6565b905092915050565b600081519050919050565b600082825260208201905092915050565b60005b83811015620012775780820151818401526020810190506200125a565b8381111562001287576000848401525b50505050565b60006002820490506001821680620012a657607f821691505b60208210811415620012bd57620012bc620012c3565b5b50919050565b7f4e487b7100000000000000000000000000000000000000000000000000000000600052602260045260246000fd5b6000601f19601f8301169050919050565b6138b580620013136000396000f3fe608060405234801561001057600080fd5b50600436106101165760003560e01c806370a08231116100a2578063b88d4fde11610071578063b88d4fde14610305578063c575757a14610321578063c87b56dd14610351578063d2c9095114610381578063e985e9c51461038b57610116565b806370a082311461026b57806395d89b411461029b578063a22cb465146102b9578063b187301f146102d557610116565b8063095ea7b3116100e9578063095ea7b3146101b757806323b872dd146101d35780632de38d68146101ef57806342842e0e1461021f5780636352211e1461023b57610116565b806301ffc9a71461011b578063060475901461014b57806306fdde0314610169578063081812fc14610187575b600080fd5b6101356004803603810190610130919061250c565b6103bb565b604051610142919061312e565b60405180910390f35b61015361049d565b60405161016091906133a9565b60405180910390f35b6101716104ae565b60405161017e9190613149565b60405180910390f35b6101a1600480360381019061019c919061255e565b610540565b6040516101ae919061309e565b60405180910390f35b6101d160048036038101906101cc91906124d0565b6105c5565b005b6101ed60048036038101906101e891906123ca565b6106dd565b005b6102096004803603810190610204919061255e565b61073d565b6040516102169190613149565b60405180910390f35b610239600480360381019061023491906123ca565b61085b565b005b6102556004803603810190610250919061255e565b61087b565b604051610262919061309e565b60405180910390f35b61028560048036038101906102809190612365565b61092d565b60405161029291906133a9565b60405180910390f35b6102a36109e5565b6040516102b09190613149565b60405180910390f35b6102d360048036038101906102ce9190612494565b610a77565b005b6102ef60048036038101906102ea919061255e565b610bf8565b6040516102fc9190613149565b60405180910390f35b61031f600480360381019061031a9190612419565b610d16565b005b61033b6004803603810190610336919061255e565b610d78565b6040516103489190613149565b60405180910390f35b61036b6004803603810190610366919061255e565b610e96565b6040516103789190613149565b60405180910390f35b610389610fe8565b005b6103a560048036038101906103a0919061238e565b6111e5565b6040516103b2919061312e565b60405180910390f35b60007f80ac58cd000000000000000000000000000000000000000000000000000000007bffffffffffffffffffffffffffffffffffffffffffffffffffffffff1916827bffffffffffffffffffffffffffffffffffffffffffffffffffffffff1916148061048657507f5b5e139f000000000000000000000000000000000000000000000000000000007bffffffffffffffffffffffffffffffffffffffffffffffffffffffff1916827bffffffffffffffffffffffffffffffffffffffffffffffffffffffff1916145b80610496575061049582611312565b5b9050919050565b60006104a9600761137c565b905090565b6060600080546104bd90613648565b80601f01602080910402602001604051908101604052809291908181526020018280546104e990613648565b80156105365780601f1061050b57610100808354040283529160200191610536565b820191906000526020600020905b81548152906001019060200180831161051957829003601f168201915b5050505050905090565b600061054b8261138a565b61058a576040517f08c379a000000000000000000000000000000000000000000000000000000000815260040161058190613309565b60405180910390fd5b6004600083815260200190815260200160002060009054906101000a900473ffffffffffffffffffffffffffffffffffffffff169050919050565b60006105d08261087b565b90508073ffffffffffffffffffffffffffffffffffffffff168373ffffffffffffffffffffffffffffffffffffffff161415610641576040517f08c379a000000000000000000000000000000000000000000000000000000000815260040161063890613369565b60405180910390fd5b8073ffffffffffffffffffffffffffffffffffffffff166106606113f6565b73ffffffffffffffffffffffffffffffffffffffff16148061068f575061068e816106896113f6565b6111e5565b5b6106ce576040517f08c379a00000000000000000000000000000000000000000000000000000000081526004016106c590613249565b60405180910390fd5b6106d883836113fe565b505050565b6106ee6106e86113f6565b826114b7565b61072d576040517f08c379a000000000000000000000000000000000000000000000000000000000815260040161072490613389565b60405180910390fd5b610738838383611595565b505050565b6060600061077161074d846117f1565b60405160200161075d919061305a565b60405160208183030381529060405261199e565b9050600a805490508161078491906136c3565b9050600a81815481106107c0577f4e487b7100000000000000000000000000000000000000000000000000000000600052603260045260246000fd5b9060005260206000200180546107d590613648565b80601f016020809104026020016040519081016040528092919081815260200182805461080190613648565b801561084e5780601f106108235761010080835404028352916020019161084e565b820191906000526020600020905b81548152906001019060200180831161083157829003601f168201915b5050505050915050919050565b61087683838360405180602001604052806000815250610d16565b505050565b6000806002600084815260200190815260200160002060009054906101000a900473ffffffffffffffffffffffffffffffffffffffff169050600073ffffffffffffffffffffffffffffffffffffffff168173ffffffffffffffffffffffffffffffffffffffff161415610924576040517f08c379a000000000000000000000000000000000000000000000000000000000815260040161091b90613289565b60405180910390fd5b80915050919050565b60008073ffffffffffffffffffffffffffffffffffffffff168273ffffffffffffffffffffffffffffffffffffffff16141561099e576040517f08c379a000000000000000000000000000000000000000000000000000000000815260040161099590613269565b60405180910390fd5b600360008373ffffffffffffffffffffffffffffffffffffffff1673ffffffffffffffffffffffffffffffffffffffff168152602001908152602001600020549050919050565b6060600180546109f490613648565b80601f0160208091040260200160405190810160405280929190818152602001828054610a2090613648565b8015610a6d5780601f10610a4257610100808354040283529160200191610a6d565b820191906000526020600020905b815481529060010190602001808311610a5057829003601f168201915b5050505050905090565b610a7f6113f6565b73ffffffffffffffffffffffffffffffffffffffff168273ffffffffffffffffffffffffffffffffffffffff161415610aed576040517f08c379a0000000000000000000000000000000000000000000000000000000008152600401610ae490613209565b60405180910390fd5b8060056000610afa6113f6565b73ffffffffffffffffffffffffffffffffffffffff1673ffffffffffffffffffffffffffffffffffffffff16815260200190815260200160002060008473ffffffffffffffffffffffffffffffffffffffff1673ffffffffffffffffffffffffffffffffffffffff16815260200190815260200160002060006101000a81548160ff0219169083151502179055508173ffffffffffffffffffffffffffffffffffffffff16610ba76113f6565b73ffffffffffffffffffffffffffffffffffffffff167f17307eab39ab6107e8899845ad3d59bd9653f200f220920489ca2b5937696c3183604051610bec919061312e565b60405180910390a35050565b60606000610c2c610c08846117f1565b604051602001610c189190612ff3565b60405160208183030381529060405261199e565b9050600b8054905081610c3f91906136c3565b9050600b8181548110610c7b577f4e487b7100000000000000000000000000000000000000000000000000000000600052603260045260246000fd5b906000526020600020018054610c9090613648565b80601f0160208091040260200160405190810160405280929190818152602001828054610cbc90613648565b8015610d095780601f10610cde57610100808354040283529160200191610d09565b820191906000526020600020905b815481529060010190602001808311610cec57829003601f168201915b5050505050915050919050565b610d27610d216113f6565b836114b7565b610d66576040517f08c379a0000000000000000000000000000000000000000000000000000000008152600401610d5d90613389565b60405180910390fd5b610d72848484846119d1565b50505050565b60606000610dac610d88846117f1565b604051602001610d989190612fd1565b60405160208183030381529060405261199e565b9050600c8054905081610dbf91906136c3565b9050600c8181548110610dfb577f4e487b7100000000000000000000000000000000000000000000000000000000600052603260045260246000fd5b906000526020600020018054610e1090613648565b80601f0160208091040260200160405190810160405280929190818152602001828054610e3c90613648565b8015610e895780601f10610e5e57610100808354040283529160200191610e89565b820191906000526020600020905b815481529060010190602001808311610e6c57829003601f168201915b5050505050915050919050565b6060610ea18261138a565b610ee0576040517f08c379a0000000000000000000000000000000000000000000000000000000008152600401610ed7906132e9565b60405180910390fd5b6000600660008481526020019081526020016000208054610f0090613648565b80601f0160208091040260200160405190810160405280929190818152602001828054610f2c90613648565b8015610f795780601f10610f4e57610100808354040283529160200191610f79565b820191906000526020600020905b815481529060010190602001808311610f5c57829003601f168201915b505050505090506000610f8a611a2d565b9050600081511415610fa0578192505050610fe3565b600082511115610fd5578082604051602001610fbd929190612f4d565b60405160208183030381529060405292505050610fe3565b610fde84611a44565b925050505b919050565b600854610ff361049d565b1115610ffe57600080fd5b600061100a600761137c565b905060006110178261073d565b9050600061102483610bf8565b9050600061103184610d78565b9050600083838360405160200161104a93929190612f71565b60405160208183030381529060405290506000600982604051602001611071929190612fa2565b604051602081830303815290604052905060006110b68361109184611aeb565b6040516020016110a2929190613015565b604051602081830303815290604052611aeb565b90506000816040516020016110cb919061307c565b604051602081830303815290604052905061111a6040518060400160405280601b81526020017f0a2d2d2d2d2d2d2d2d2d2d2d2d2d2d2d2d2d2d2d2d2d2d2d2d2d2d0000000000815250611279565b61112383611279565b6111616040518060400160405280601b81526020017f2d2d2d2d2d2d2d2d2d2d2d2d2d2d2d2d2d2d2d2d2d2d2d2d2d2d0a0000000000815250611279565b61116b3389611ca9565b6111758882611cc7565b61117f6007611d3b565b6111a260405180606001604052806022815260200161381e602291398933611d51565b7febb98688741ffa4c7589bf325de30cf7becb63de567842e1ccdb6cb949fdc82c33896040516111d3929190613105565b60405180910390a15050505050505050565b6000600560008473ffffffffffffffffffffffffffffffffffffffff1673ffffffffffffffffffffffffffffffffffffffff16815260200190815260200160002060008373ffffffffffffffffffffffffffffffffffffffff1673ffffffffffffffffffffffffffffffffffffffff16815260200190815260200160002060009054906101000a900460ff16905092915050565b61130f8160405160240161128d9190613149565b6040516020818303038152906040527f41304fac000000000000000000000000000000000000000000000000000000007bffffffffffffffffffffffffffffffffffffffffffffffffffffffff19166020820180517bffffffffffffffffffffffffffffffffffffffffffffffffffffffff8381831617835250505050611df0565b50565b60007f01ffc9a7000000000000000000000000000000000000000000000000000000007bffffffffffffffffffffffffffffffffffffffffffffffffffffffff1916827bffffffffffffffffffffffffffffffffffffffffffffffffffffffff1916149050919050565b600081600001549050919050565b60008073ffffffffffffffffffffffffffffffffffffffff166002600084815260200190815260200160002060009054906101000a900473ffffffffffffffffffffffffffffffffffffffff1673ffffffffffffffffffffffffffffffffffffffff1614159050919050565b600033905090565b816004600083815260200190815260200160002060006101000a81548173ffffffffffffffffffffffffffffffffffffffff021916908373ffffffffffffffffffffffffffffffffffffffff160217905550808273ffffffffffffffffffffffffffffffffffffffff166114718361087b565b73ffffffffffffffffffffffffffffffffffffffff167f8c5be1e5ebec7d5bd14f71427d1e84f3dd0314c0f7b2291e5b200ac8c7c3b92560405160405180910390a45050565b60006114c28261138a565b611501576040517f08c379a00000000000000000000000000000000000000000000000000000000081526004016114f890613229565b60405180910390fd5b600061150c8361087b565b90508073ffffffffffffffffffffffffffffffffffffffff168473ffffffffffffffffffffffffffffffffffffffff16148061157b57508373ffffffffffffffffffffffffffffffffffffffff1661156384610540565b73ffffffffffffffffffffffffffffffffffffffff16145b8061158c575061158b81856111e5565b5b91505092915050565b8273ffffffffffffffffffffffffffffffffffffffff166115b58261087b565b73ffffffffffffffffffffffffffffffffffffffff161461160b576040517f08c379a000000000000000000000000000000000000000000000000000000000815260040161160290613329565b60405180910390fd5b600073ffffffffffffffffffffffffffffffffffffffff168273ffffffffffffffffffffffffffffffffffffffff16141561167b576040517f08c379a0000000000000000000000000000000000000000000000000000000008152600401611672906131e9565b60405180910390fd5b611686838383611e19565b6116916000826113fe565b6001600360008573ffffffffffffffffffffffffffffffffffffffff1673ffffffffffffffffffffffffffffffffffffffff16815260200190815260200160002060008282546116e1919061355e565b925050819055506001600360008473ffffffffffffffffffffffffffffffffffffffff1673ffffffffffffffffffffffffffffffffffffffff1681526020019081526020016000206000828254611738919061347d565b92505081905550816002600083815260200190815260200160002060006101000a81548173ffffffffffffffffffffffffffffffffffffffff021916908373ffffffffffffffffffffffffffffffffffffffff160217905550808273ffffffffffffffffffffffffffffffffffffffff168473ffffffffffffffffffffffffffffffffffffffff167fddf252ad1be2c89b69c2b068fc378daa952ba7f163c4a11628f55a4df523b3ef60405160405180910390a4505050565b60606000821415611839576040518060400160405280600181526020017f30000000000000000000000000000000000000000000000000000000000000008152509050611999565b600082905060005b6000821461186b5780806118549061367a565b915050600a8261186491906134d3565b9150611841565b60008167ffffffffffffffff8111156118ad577f4e487b7100000000000000000000000000000000000000000000000000000000600052604160045260246000fd5b6040519080825280601f01601f1916602001820160405280156118df5781602001600182028036833780820191505090505b5090505b60008514611992576001826118f8919061355e565b9150600a8561190791906136c3565b6030611913919061347d565b60f81b81838151811061194f577f4e487b7100000000000000000000000000000000000000000000000000000000600052603260045260246000fd5b60200101907effffffffffffffffffffffffffffffffffffffffffffffffffffffffffffff1916908160001a905350600a8561198b91906134d3565b94506118e3565b8093505050505b919050565b6000816040516020016119b19190612f36565b6040516020818303038152906040528051906020012060001c9050919050565b6119dc848484611595565b6119e884848484611e1e565b611a27576040517f08c379a0000000000000000000000000000000000000000000000000000000008152600401611a1e906131a9565b60405180910390fd5b50505050565b606060405180602001604052806000815250905090565b6060611a4f8261138a565b611a8e576040517f08c379a0000000000000000000000000000000000000000000000000000000008152600401611a8590613349565b60405180910390fd5b6000611a98611a2d565b90506000815111611ab85760405180602001604052806000815250611ae3565b80611ac2846117f1565b604051602001611ad3929190612f4d565b6040516020818303038152906040525b915050919050565b60606000825190506000811415611b145760405180602001604052806000815250915050611ca4565b60006003600283611b25919061347d565b611b2f91906134d3565b6004611b3b9190613504565b90506000602082611b4c919061347d565b67ffffffffffffffff811115611b8b577f4e487b7100000000000000000000000000000000000000000000000000000000600052604160045260246000fd5b6040519080825280601f01601f191660200182016040528015611bbd5781602001600182028036833780820191505090505b5090506000604051806060016040528060408152602001613840604091399050600181016020830160005b86811015611c615760038101905062ffffff818a015116603f8160121c168401518060081b905060ff603f83600c1c1686015116810190508060081b905060ff603f8360061c1686015116810190508060081b905060ff603f831686015116810190508060e01b90508084526004840193505050611be8565b506003860660018114611c7b5760028114611c8b57611c96565b613d3d60f01b6002830352611c96565b603d60f81b60018303525b508484525050819450505050505b919050565b611cc3828260405180602001604052806000815250611fb5565b5050565b611cd08261138a565b611d0f576040517f08c379a0000000000000000000000000000000000000000000000000000000008152600401611d06906132a9565b60405180910390fd5b80600660008481526020019081526020016000209080519060200190611d369291906121f1565b505050565b6001816000016000828254019250508190555050565b611deb838383604051602401611d699392919061316b565b6040516020818303038152906040527fe3849f79000000000000000000000000000000000000000000000000000000007bffffffffffffffffffffffffffffffffffffffffffffffffffffffff19166020820180517bffffffffffffffffffffffffffffffffffffffffffffffffffffffff8381831617835250505050611df0565b505050565b60008151905060006a636f6e736f6c652e6c6f679050602083016000808483855afa5050505050565b505050565b6000611e3f8473ffffffffffffffffffffffffffffffffffffffff16612010565b15611fa8578373ffffffffffffffffffffffffffffffffffffffff1663150b7a02611e686113f6565b8786866040518563ffffffff1660e01b8152600401611e8a94939291906130b9565b602060405180830381600087803b158015611ea457600080fd5b505af1925050508015611ed557506040513d601f19601f82011682018060405250810190611ed29190612535565b60015b611f58573d8060008114611f05576040519150601f19603f3d011682016040523d82523d6000602084013e611f0a565b606091505b50600081511415611f50576040517f08c379a0000000000000000000000000000000000000000000000000000000008152600401611f47906131a9565b60405180910390fd5b805181602001fd5b63150b7a0260e01b7bffffffffffffffffffffffffffffffffffffffffffffffffffffffff1916817bffffffffffffffffffffffffffffffffffffffffffffffffffffffff191614915050611fad565b600190505b949350505050565b611fbf8383612023565b611fcc6000848484611e1e565b61200b576040517f08c379a0000000000000000000000000000000000000000000000000000000008152600401612002906131a9565b60405180910390fd5b505050565b600080823b905060008111915050919050565b600073ffffffffffffffffffffffffffffffffffffffff168273ffffffffffffffffffffffffffffffffffffffff161415612093576040517f08c379a000000000000000000000000000000000000000000000000000000000815260040161208a906132c9565b60405180910390fd5b61209c8161138a565b156120dc576040517f08c379a00000000000000000000000000000000000000000000000000000000081526004016120d3906131c9565b60405180910390fd5b6120e860008383611e19565b6001600360008473ffffffffffffffffffffffffffffffffffffffff1673ffffffffffffffffffffffffffffffffffffffff1681526020019081526020016000206000828254612138919061347d565b92505081905550816002600083815260200190815260200160002060006101000a81548173ffffffffffffffffffffffffffffffffffffffff021916908373ffffffffffffffffffffffffffffffffffffffff160217905550808273ffffffffffffffffffffffffffffffffffffffff16600073ffffffffffffffffffffffffffffffffffffffff167fddf252ad1be2c89b69c2b068fc378daa952ba7f163c4a11628f55a4df523b3ef60405160405180910390a45050565b8280546121fd90613648565b90600052602060002090601f01602090048101928261221f5760008555612266565b82601f1061223857805160ff1916838001178555612266565b82800160010185558215612266579182015b8281111561226557825182559160200191906001019061224a565b5b5090506122739190612277565b5090565b5b80821115612290576000816000905550600101612278565b5090565b60006122a76122a2846133f5565b6133c4565b9050828152602081018484840111156122bf57600080fd5b6122ca848285613606565b509392505050565b6000813590506122e1816137c1565b92915050565b6000813590506122f6816137d8565b92915050565b60008135905061230b816137ef565b92915050565b600081519050612320816137ef565b92915050565b600082601f83011261233757600080fd5b8135612347848260208601612294565b91505092915050565b60008135905061235f81613806565b92915050565b60006020828403121561237757600080fd5b6000612385848285016122d2565b91505092915050565b600080604083850312156123a157600080fd5b60006123af858286016122d2565b92505060206123c0858286016122d2565b9150509250929050565b6000806000606084860312156123df57600080fd5b60006123ed868287016122d2565b93505060206123fe868287016122d2565b925050604061240f86828701612350565b9150509250925092565b6000806000806080858703121561242f57600080fd5b600061243d878288016122d2565b945050602061244e878288016122d2565b935050604061245f87828801612350565b925050606085013567ffffffffffffffff81111561247c57600080fd5b61248887828801612326565b91505092959194509250565b600080604083850312156124a757600080fd5b60006124b5858286016122d2565b92505060206124c6858286016122e7565b9150509250929050565b600080604083850312156124e357600080fd5b60006124f1858286016122d2565b925050602061250285828601612350565b9150509250929050565b60006020828403121561251e57600080fd5b600061252c848285016122fc565b91505092915050565b60006020828403121561254757600080fd5b600061255584828501612311565b91505092915050565b60006020828403121561257057600080fd5b600061257e84828501612350565b91505092915050565b61259081613592565b82525050565b61259f816135a4565b82525050565b60006125b08261343a565b6125ba8185613450565b93506125ca818560208601613615565b6125d3816137b0565b840191505092915050565b60006125e982613445565b6125f38185613461565b9350612603818560208601613615565b61260c816137b0565b840191505092915050565b600061262282613445565b61262c8185613472565b935061263c818560208601613615565b80840191505092915050565b6000815461265581613648565b61265f8186613472565b9450600182166000811461267a576001811461268b576126be565b60ff198316865281860193506126be565b61269485613425565b60005b838110156126b657815481890152600182019150602081019050612697565b838801955050505b50505092915050565b60006126d4607683613472565b91507f222c20226465736372697074696f6e223a20224120686967686c79206163636c60008301527f61696d656420636f6c6c656374696f6e73206f6620696d6167657320636f6d7060208301527f6f736564206f66203320776f726473222c2022696d616765223a20226461746160408301527f3a696d6167652f7376672b786d6c3b6261736536342c000000000000000000006060830152607682019050919050565b6000612786603283613461565b91507f4552433732313a207472616e7366657220746f206e6f6e20455243373231526560008301527f63656976657220696d706c656d656e74657200000000000000000000000000006020830152604082019050919050565b60006127ec601c83613461565b91507f4552433732313a20746f6b656e20616c7265616479206d696e746564000000006000830152602082019050919050565b600061282c600a83613472565b91507f54484952445f574f5244000000000000000000000000000000000000000000006000830152600a82019050919050565b600061286c602483613461565b91507f4552433732313a207472616e7366657220746f20746865207a65726f2061646460008301527f72657373000000000000000000000000000000000000000000000000000000006020830152604082019050919050565b60006128d2601983613461565b91507f4552433732313a20617070726f766520746f2063616c6c6572000000000000006000830152602082019050919050565b6000612912600b83613472565b91507f5345434f4e445f574f52440000000000000000000000000000000000000000006000830152600b82019050919050565b6000612952602c83613461565b91507f4552433732313a206f70657261746f7220717565727920666f72206e6f6e657860008301527f697374656e7420746f6b656e00000000000000000000000000000000000000006020830152604082019050919050565b60006129b8600d83613472565b91507f3c2f746578743e3c2f7376673e000000000000000000000000000000000000006000830152600d82019050919050565b60006129f8603883613461565b91507f4552433732313a20617070726f76652063616c6c6572206973206e6f74206f7760008301527f6e6572206e6f7220617070726f76656420666f7220616c6c00000000000000006020830152604082019050919050565b6000612a5e602a83613461565b91507f4552433732313a2062616c616e636520717565727920666f7220746865207a6560008301527f726f2061646472657373000000000000000000000000000000000000000000006020830152604082019050919050565b6000612ac4602983613461565b91507f4552433732313a206f776e657220717565727920666f72206e6f6e657869737460008301527f656e7420746f6b656e00000000000000000000000000000000000000000000006020830152604082019050919050565b6000612b2a602e83613461565b91507f45524337323155524953746f726167653a2055524920736574206f66206e6f6e60008301527f6578697374656e7420746f6b656e0000000000000000000000000000000000006020830152604082019050919050565b6000612b90600283613472565b91507f227d0000000000000000000000000000000000000000000000000000000000006000830152600282019050919050565b6000612bd0602083613461565b91507f4552433732313a206d696e7420746f20746865207a65726f20616464726573736000830152602082019050919050565b6000612c10603183613461565b91507f45524337323155524953746f726167653a2055524920717565727920666f722060008301527f6e6f6e6578697374656e7420746f6b656e0000000000000000000000000000006020830152604082019050919050565b6000612c76602c83613461565b91507f4552433732313a20617070726f76656420717565727920666f72206e6f6e657860008301527f697374656e7420746f6b656e00000000000000000000000000000000000000006020830152604082019050919050565b6000612cdc602983613461565b91507f4552433732313a207472616e73666572206f6620746f6b656e2074686174206960008301527f73206e6f74206f776e00000000000000000000000000000000000000000000006020830152604082019050919050565b6000612d42602f83613461565b91507f4552433732314d657461646174613a2055524920717565727920666f72206e6f60008301527f6e6578697374656e7420746f6b656e00000000000000000000000000000000006020830152604082019050919050565b6000612da8600a83613472565b91507f7b226e616d65223a2022000000000000000000000000000000000000000000006000830152600a82019050919050565b6000612de8602183613461565b91507f4552433732313a20617070726f76616c20746f2063757272656e74206f776e6560008301527f72000000000000000000000000000000000000000000000000000000000000006020830152604082019050919050565b6000612e4e600a83613472565b91507f46495253545f574f5244000000000000000000000000000000000000000000006000830152600a82019050919050565b6000612e8e601d83613472565b91507f646174613a6170706c69636174696f6e2f6a736f6e3b6261736536342c0000006000830152601d82019050919050565b6000612ece603183613461565b91507f4552433732313a207472616e736665722063616c6c6572206973206e6f74206f60008301527f776e6572206e6f7220617070726f7665640000000000000000000000000000006020830152604082019050919050565b612f30816135fc565b82525050565b6000612f428284612617565b915081905092915050565b6000612f598285612617565b9150612f658284612617565b91508190509392505050565b6000612f7d8286612617565b9150612f898285612617565b9150612f958284612617565b9150819050949350505050565b6000612fae8285612648565b9150612fba8284612617565b9150612fc5826129ab565b91508190509392505050565b6000612fdc8261281f565b9150612fe88284612617565b915081905092915050565b6000612ffe82612905565b915061300a8284612617565b915081905092915050565b600061302082612d9b565b915061302c8285612617565b9150613037826126c7565b91506130438284612617565b915061304e82612b83565b91508190509392505050565b600061306582612e41565b91506130718284612617565b915081905092915050565b600061308782612e81565b91506130938284612617565b915081905092915050565b60006020820190506130b36000830184612587565b92915050565b60006080820190506130ce6000830187612587565b6130db6020830186612587565b6130e86040830185612f27565b81810360608301526130fa81846125a5565b905095945050505050565b600060408201905061311a6000830185612587565b6131276020830184612f27565b9392505050565b60006020820190506131436000830184612596565b92915050565b6000602082019050818103600083015261316381846125de565b905092915050565b6000606082019050818103600083015261318581866125de565b90506131946020830185612f27565b6131a16040830184612587565b949350505050565b600060208201905081810360008301526131c281612779565b9050919050565b600060208201905081810360008301526131e2816127df565b9050919050565b600060208201905081810360008301526132028161285f565b9050919050565b60006020820190508181036000830152613222816128c5565b9050919050565b6000602082019050818103600083015261324281612945565b9050919050565b60006020820190508181036000830152613262816129eb565b9050919050565b6000602082019050818103600083015261328281612a51565b9050919050565b600060208201905081810360008301526132a281612ab7565b9050919050565b600060208201905081810360008301526132c281612b1d565b9050919050565b600060208201905081810360008301526132e281612bc3565b9050919050565b6000602082019050818103600083015261330281612c03565b9050919050565b6000602082019050818103600083015261332281612c69565b9050919050565b6000602082019050818103600083015261334281612ccf565b9050919050565b6000602082019050818103600083015261336281612d35565b9050919050565b6000602082019050818103600083015261338281612ddb565b9050919050565b600060208201905081810360008301526133a281612ec1565b9050919050565b60006020820190506133be6000830184612f27565b92915050565b6000604051905081810181811067ffffffffffffffff821117156133eb576133ea613781565b5b8060405250919050565b600067ffffffffffffffff8211156134105761340f613781565b5b601f19601f8301169050602081019050919050565b60008190508160005260206000209050919050565b600081519050919050565b600081519050919050565b600082825260208201905092915050565b600082825260208201905092915050565b600081905092915050565b6000613488826135fc565b9150613493836135fc565b9250827fffffffffffffffffffffffffffffffffffffffffffffffffffffffffffffffff038211156134c8576134c76136f4565b5b828201905092915050565b60006134de826135fc565b91506134e9836135fc565b9250826134f9576134f8613723565b5b828204905092915050565b600061350f826135fc565b915061351a836135fc565b9250817fffffffffffffffffffffffffffffffffffffffffffffffffffffffffffffffff0483118215151615613553576135526136f4565b5b828202905092915050565b6000613569826135fc565b9150613574836135fc565b925082821015613587576135866136f4565b5b828203905092915050565b600061359d826135dc565b9050919050565b60008115159050919050565b60007fffffffff0000000000000000000000000000000000000000000000000000000082169050919050565b600073ffffffffffffffffffffffffffffffffffffffff82169050919050565b6000819050919050565b82818337600083830152505050565b60005b83811015613633578082015181840152602081019050613618565b83811115613642576000848401525b50505050565b6000600282049050600182168061366057607f821691505b6020821081141561367457613673613752565b5b50919050565b6000613685826135fc565b91507fffffffffffffffffffffffffffffffffffffffffffffffffffffffffffffffff8214156136b8576136b76136f4565b5b600182019050919050565b60006136ce826135fc565b91506136d9836135fc565b9250826136e9576136e8613723565b5b828206905092915050565b7f4e487b7100000000000000000000000000000000000000000000000000000000600052601160045260246000fd5b7f4e487b7100000000000000000000000000000000000000000000000000000000600052601260045260246000fd5b7f4e487b7100000000000000000000000000000000000000000000000000000000600052602260045260246000fd5b7f4e487b7100000000000000000000000000000000000000000000000000000000600052604160045260246000fd5b6000601f19601f8301169050919050565b6137ca81613592565b81146137d557600080fd5b50565b6137e1816135a4565b81146137ec57600080fd5b50565b6137f8816135b0565b811461380357600080fd5b50565b61380f816135fc565b811461381a57600080fd5b5056fe416e204e465420772f20494420257320686173206265656e206d696e7465642025734142434445464748494a4b4c4d4e4f505152535455565758595a6162636465666768696a6b6c6d6e6f707172737475767778797a303132333435363738392b2fa26469706673582212203b7ff31fcf1de32d68f8ed4a859cb3c5e23d0cd46d825b13474375ca3c46cd4c64736f6c634300080000333c73766720786d6c6e733d27687474703a2f2f7777772e77332e6f72672f323030302f73766727207072657365727665417370656374526174696f3d27784d696e594d696e206d656574272076696577426f783d273020302033353020333530273e3c7374796c653e2e62617365207b2066696c6c3a2077686974653b20666f6e742d66616d696c793a2073657269663b20666f6e742d73697a653a20323470783b207d3c2f7374796c653e3c726563742077696474683d273130302527206865696768743d2731303025272066696c6c3d27626c61636b27202f3e3c7465787420783d273530252720793d273530252720636c6173733d27626173652720646f6d696e616e742d626173656c696e653d276d6964646c652720746578742d616e63686f723d276d6964646c65273e",
  "linkReferences": {},
  "deployedLinkReferences": {}
}